:100DA4000313831600308700880083120030870005
:100DB40088008316061686160617861706108610F0
:100DC40006118611831200308600FF30A000B5277B
:100DD400EC26EA2E0614061A6B27061AEF2E861A3C
:100DE4007527861AF32E061B7F27061BF72E06107F
:100DF4008614061A4D27061AFD2E861A5727861AB8
:100E0400012F061B6127061B052F86100615061ADF
:100E14002F27061A0B2F861A3927861A0F2F061B1F
:100E24004327061B132F06118615061A9A27061A3E
:100E3400192F861A2927861A1D2F061B8927061B98
:100E4400212F861B9327861B252F861108003030FF
:100E5400C3270030A80AA30708003130C327013094
:100E6400A80A2818F7270000281CA3070800323016
:100E7400C3270230A80A2818F7270000281CA30754
:100E840008003330C3270330A80A2818F7270000C6
:100E9400281CA30708003430C3270430A80A2818E4
:100EA400F7270000281CA30708003530C3270530A6
:100EB400A80A2818F7270000281CA30708003630C2
:100EC400C3270630A80A2818F7270000281CA30700
:100ED40008003730C3270730A80A2818F72700006E
:100EE400281CA30708003830C3270830A80A28188C
:100EF400F7270000281CA30708003930C32709304E
:100F0400A80A2818F7270000281CA30708003D306A
:100F1400C32723082207A900D827A427A801A301CF
:100F240008002B30C3272308A200A301A80108004E
:100F3400D327A301A801A201B201B301B401A901FD
:100F4400003008003208303EC3273308303EC32740
:100F54003408303EC327A00BAD2FFF30A00008009B
:100F6400AD27AD270800071087100230C3272830AB
:100F7400C3270E30C3270130C3278030C32707148B
:100F84000800A100F030210588000715AD270711DE
:100F9400B227210EF03988000715AD270711B227B3
:100FA400080007100130C32707140800B10164309A
:100FB400F2273108B200FF30290703190800B101F4
:100FC4006430A9070A30F2273108B300FF3029073B
:100FD40003190800B1010A30A9072908B400080060
:100FE400A902031C0800B10AF22FA600A607A6074F
:0C0FF400A607A607260DA500A30708000D
:02400E003A3F37
:00000001FF
